:100000000C9484050C94CB050C94CB050C94151D15
:100010000C94CB050C94CB050C94CB050C94CB0520
:100020000C94CB050C94CB050C94692F0C943D30AB
:100030000C94BF2A0C94CB050C94CB050C94CB05E7
:100040000C94CB050C94CB050C94CB050C94CB05F0
:100050000C94CB050C94322B0C94CB050C94CB0553
:100060000C94CB050C94CB050C94CB050C94CB05D0
:100070000C94CB050C94CB050C94CB050C94CB05C0
:100080000C94CB050C94CB050C94CB050C94CB05B0
:100090000C94CB050C94CB050C94CB050C94CB05A0
:1000A0000C94CB050C94CB050C94CB053A00209412
:1000B00095962020B4B5B62020D4D5D62000209720
:1000C00098992020B7B8B92020D7D8D92000209AF5
:1000D0009B9C2020BABBBC2020DADBDC2000209DCA
:1000E0009E9F2020BDBEBF2020DDDEDF2000636F8D
:1000F000726E65008081828384A0A1A2A3A4C0C186
:10010000C2C3C400ABAC00CFD000C600CA00C80058
:10011000A9AA00B1B2008B8C00CDCE00C500C900E9
:10012000C700CB00898A00919200A7A800AFB00059
:10013000C600CA00C800A5A600ADAE008788008F23
:100140009000C500C900C700CB008586008D8E00D9
:100150002020202020002B0014001A000800150089
:100160001700D85C04001600070009000A00E00030
:100170001D001B0006001900050000000000000023
:1001800029682A5D2C002A00130012000C001800B8
:100190001C00340033000F000E000D000B00D95C72
:1001A0003800370036001000110000000000000089
:1001B0002E5D2B5D287129001E001F0020002100EC
:1001C0002200E000BC00AE00BB0000000000E10027
:1001D000000000000000000000000000000000001F
:1001E000E3002A5D2C004C00270026002500240097
:1001F00023004D004A000000A900A800AA004E00FC
:100200004B000000000000000000000000000000A3
:10021000E6002B5D280029001E021F022002210299
:100220002202E0003A003B003C003D003E00E100BD
:100230003F00400041004200430000000000000079
:10024000E3002A5D2C002A00270226022502240250
:1002500023023500310230022F022E002D0035021C
:10026000310030002F002E022D020000000000009F
:10027000E6002B5D28000000000052000000000096
:1002800000000000500051004F0000004800000036
:100290000000000000000000470000000000000017
:1002A000E3002A5D2C00005C2D5D000000000000D2
:1002B00000000000CC5CCA5CC85CC65CC35CC55C6A
:1002C000CD5CCB5CC95CC75CC45C00000000000076
:1002D000E6002B5D280000000000000000002A2B33
:1002E00028000000000000000000000000000000E6
:1002F0000029000000002C1E34202122243426274F
:10030000252E362D3738271E1F202122232425266F
:100310003333362E37381F0405060708090A0B0C3D
:100320000D0E0F101112131415161718191A1B1C85
:100330001D2F3130232D350405060708090A0B0C43
:100340000D0E0F101112131415161718191A1B1C65
:100350001D2F3130354C000000000000000000006F
:10036000000000000000000000007E0F00D4FFFF2E
:10037000FFC7000000780001010101010101010136
:100380000202020202020202020303030303030346
:100390000304040404040404050505050506060613
:1003A0000606070707070708080808090909090AD0
:1003B0000A0A0B0B0B0C0C0C0D0D0D0E0E0E0F0F75
:1003C0000F10101111111212131314141515161603
:1003D0001717181819191A1A1B1B1C1D1D1E1E1F72
:1003E0002020212222232424252626272829292AC1
:1003F0002B2C2D2D2E2F30313232333435363738E9
:10040000393A3B3C3D3E3F404142434445464748E4
:10041000494A4C4D4E4F50515354555658595A5BBA
:100420005D5E5F616264656668696B6C6D6F70725A
:10043000737577787A7B7D7E8082838587888A8CC6
:100440008E8F91939596989A9C9EA0A2A3A5A7A9FA
:10045000ABADAFB1B3B5B7BABCBEC0C2C4C6C9CBF1
:10046000CDCFD1D4D6D8DBDDDFE2E4E7E9EBEEF0A7
:10047000F3F5F8FAFDFF00AE00AF00DA0281FFD914
:10048000F1DB20A4A62EAF00A0C000A1C800AED50D
:1004900080A81FD300408D14200000000000000041
:1004A0003E5B4F5B3E003E6B4F6B3E001C3E7C3E16
:1004B0001C00183C7E3C18001C577D571C001C5E1D
:1004C0007F5E1C0000183C180000FFE7C3E7FF0038
:1004D000001824180000FFE7DBE7FF0030483A0669
:1004E0000E00262979292600407F05050700407F58
:1004F00005253F005A3CE73C5A007F3E1C1C080083
:10050000081C1C3E7F0014227F2214005F5F005FE6
:100510005F0006097F017F00006689956A006060C0
:100520006060600094A2FFA2940008047E040800AA
:1005300010207E20100008082A1C0800081C2A0829
:1005400008001E10101010000C1E0C1E0C0030387D
:100550003E383000060E3E0E06000000000000008F
:1005600000005F000000000700070000147F147FF8
:100570001400242A7F2A12002313086462003649DB
:1005800056205000000807030000001C2241000014
:100590000041221C00002A1C7F1C2A0008083E087B
:1005A00008000080703000000808080808000000FB
:1005B000606000002010080402003E5149453E00E2
:1005C00000427F4000007249494946002141494D9F
:1005D00033001814127F10002745454539003C4A66
:1005E000494931004121110907003649494936007E
:1005F000464949291E000000140000000040340054
:1006000000000008142241001414141414000041C6
:10061000221408000201590906003E415D594E00AE
:100620007C1211127C007F49494936003E4141410C
:1006300022007F4141413E007F49494941007F09F5
:10064000090901003E41415173007F0808087F00FD
:1006500000417F4100002040413F01007F081422FB
:1006600041007F40404040007F021C027F007F0429
:1006700008107F003E4141413E007F090909060004
:100680003E4151215E007F0919294600264949490A
:10069000320003017F0103003F4040403F001F2024
:1006A00040201F003F4038403F006314081463009F
:1006B0000304780403006159494D4300007F414120
:1006C0004100020408102000004141417F00040263
:1006D00001020400404040404000000307080000C1
:1006E0002054547840007F2844443800384444441F
:1006F0002800384444287F00385454541800000817
:100700007E0902001824241C78007F080404780065
:1007100000447D4000002040403D00007F10284400
:10072000000000417F4000007C04780478007C08D1
:10073000040478003844444438007C182424180009
:10074000182424187C007C080404080048545454DD
:10075000240004043F4424003C4040207C001C2032
:1007600040201C003C4030403C00442810284400FD
:100770004C9090907C004464544C440000083641F6
:100780000000000077000000004136080000020170
:10079000020402003C2623263C000000000000006A
:1007A0000000C0E0F0F8F81800C0F0FCFEFFFFFF0A
:1007B000FFFFFFFF7E00000000F8042252E24242E9
:1007C00042E2522222224282020222220204F80043
:1007D00000F8040202824222428202020282422283
:1007E000122242820204F80000F8FCDEAE1EBEBEF9
:1007F000BE1EAEDEDEDEBE7EFEFEDEDEFEFCF800EF
:1008000000F8FCFEFE7EBEDEBE7EFEFE00000000A6
:100810000000808040402020101008081010202088
:10082000404080808080C0C0E0E0F0F0F8F8F0F058
:10083000E0E0C0C080808080404020201010080888
:100840001010202040408080808040C060A050B0C8
:1008500058A850B060A040C0808000F8FCFEFFE0C7
:1008600000FFFFFFFFFFFF80FFFFFFFFFFFFFFFF16
:10087000FF1F070100000000001F20444A474242BA
:1008800042474A44404040404142444440201F00C7
:10089000001F2040414040404040414041414F48BE
:1008A00048484F4141201F00001F3F7B75787D7DE8
:1008B0007D78757B7F7F7F7F7E7D7B7B7F3F1F0089
:1008C000001F3F7F7E7F7F7F7F7F7E7F0000000055
:1008D000000088885D5D3E3E7C7CF8F87C7C3E3E76
:1008E0005D5D888888885555232347478F8F474704
:1008F0002323555588888888D5D5E2E2C4C48888E2
:10090000C4C4E2E2D5D5888888885DD56BB66DD63B
:10091000ADDA6DD66BB65DD5888800030F1F3F3FFB
:100920003F3F1F1F3F3F7F7F7F3F3F1F3F7F7F7FB7
:100930007F7C7878381C0F0004F80000F804201F32
:1009400000001F20FCF80000F8043F1F00001F20DB
:1009500004F80000F8FC201F00001F3FFCF8000016
:10096000F8FC3F1F00001F3FFE7EBEDEEEDEBE7EB7
:10097000FEFCF8007E7E70777777707E7E3F1F00EA
:100980000000000000000000000000000000000067
:10099000000000000101020204040808040402022D
:1009A000010100000000010102020404080804041F
:1009B00002020101000000000101030307070F0FFD
:1009C00007070303010100000000010103020506FF
:1009D0000D0A0506030201010000040330000000B7
:1009E000480343006F0072006E00650020004B005A
:1009F0006500790062006F006100720064002000F1
:100A00005200650076002E003100200028004C00C6
:100A100065006700610063007900200053007000EA
:100A20006C006900740029000000100366006F006C
:100A30006F007300740061006E000000040309047D
:100A400009023B00020100A0FA09040000010301B1
:100A5000010009211101000122400007058103085E
:100A6000000A09040100010300000009211101002E
:100A700001223B000705820320000A120110010039
:100A800000000853460100010001020301050109AD
:100A900006A1018505050719E029E715002501953F
:100AA00008750181020507190029EF150025019538
:100AB000F075018102050819012905950575019157
:100AC00002950175039101C005010906A101050701
:100AD00019E029E7150025019508750181029501A6
:100AE000750881010507190029FF150026FF0095EB
:100AF00006750881000508190129059505750191FC
:100B000002950175039101C011241FBECFEFDAE0F9
:100B1000DEBFCDBF04B603FE27C080915F07909172
:100B20006007A0916107B09162078730904BA740A2
:100B3000B04BD1F410925F071092600710926107DA
:100B40001092620714BE84B7877F84BF0FB6F894F3
:100B5000A895809160008861809360001092600089
:100B60000FBEE0E0F8E3099513E0A0E0B1E0ECE3AC
:100B7000F7E602C005900D92A030B107D9F727E043
:100B8000A0E0B3E001C01D92AF35B207E1F70E94CB
:100B9000A52C0C9459330C940000CF93DF93A7EE4F
:100BA000B2E04BEE52E0C1E0D0E08D91E82FE2954B
:100BB000EF70F0E061A18F709E0101C0220F8A9555
:100BC000EAF7922F9095962391A382A1822B82A37C
:100BD0004A175B0751F7DF91CF91089508950C9460
:100BE000EE05209A559A289A5D9A08955D98089581
:100BF0005D9A089528980895289A08950E94B30749
:100C00000E94CD05A1EEB2E061E070E08D91E82F89
:100C1000E295EF70F0E041A18F709B0101C0220FBF
:100C20008A95EAF7922F9095942391A382A1822B23
:100C300082A382E0A73EB80749F70E94F105E8E0E9
:100C4000F3E0A0E0B3E011921D9283E0E031F807F9
:100C5000D1F70E949507809310030C94BF0A8F92DE
:100C60009F92AF92BF92CF92DF92EF92FF920F933B
:100C70001F93CF93DF9380910501C4E0D0E08823D8
:100C800011F0D0E0C0E087EEC82E82E0D82EAE0191
:100C900040505D4F7A018A01912CAA24A394B12C73
:100CA00025E0822EF60181916F01E82FE295EF7029
:100CB000F0E021A18F70A50102C0440F551F8A9555
:100CC000E2F7CA01922F982B91A392A180958923D4
:100CD00082A350EA5A95F1F7E1EEF2E020E050E00D
:100CE00040E03191A32FA295AF70B0E090968C9127
:100CF00090E03F7002C0959587953A95E2F780FDA8
:100D00003CC0C501042E01C0880F0A94EAF7282BC5
:100D10004F5F5F4F4630510521F7F8018081821700
:100D200029F0208380920401992493940E94CD0598
:100D30000F5F1F4FFBEECF16F2E0DF0609F0B2CFD8
:100D400080910401882359F0815080930401882305
:100D5000B1F08FE99FE00197F1F700C00000892D05
:100D6000DF91CF911F910F91FF90EF90DF90CF9087
:100D7000BF90AF909F908F90089580E0C8CFC85FDC
:100D8000DC4F84E0F70191917F0199938150D1F775
:100D9000E6CF0F931F93CF93DF932091050110E0CF
:100DA00000E0222311F004E010E00E94CE07EC01E5
:100DB000009739F0029711F40E94FA05C1E0D0E0E3
:100DC00011C00E94FC05F801E85FFC4F80911C03F4
:100DD00090911D03A0911E03B0911F038083918306
:100DE000A283B383CE01DF91CF911F910F9108951C
:100DF0000E942F0690910501E4E0F0E0992311F0A4
:100E0000F0E0E0E0E85FFC4F30E020E040E0D901B6
:100E1000A45EBC4F5C919191591341E09C932F5F6C
:100E20003F4F2430310599F790911503940F90931B
:100E3000150308951F93CF93DF93809110038823A8
:100E400009F44BC00E942F06182F80910501C4E0C1
:100E5000D0E0882311F0D0E0C0E0C85FDC4F44E070
:100E600050E0BE0188E193E00E94CF324881598171
:100E70006A817B81409318035093190360931A038E
:100E800070931B030E94C906892B11F10E94F6057D
:100E9000809111038F5F80931103863070F08091F1
:100EA0000501F0E0E0E0882311F0E4E0F0E0E85F25
:100EB000FC4F10821182128213820E94C90AC1E083
:100EC000111101C0C0E08C2FDF91CF911F910895C7
:100ED0000E94F80510921103F0CF0E94F806C1E0BD
:100EE000811101C0C0E080910501811114C090E022
:100EF00080E0885F9C4F40911803509119036091E6
:100F00001A0370911B03FC01408351836283738336
:100F10000E94C90AD8CF84E090E0EBCFE82FF0E040
:100F2000E85FFC4F8081089508958091120381113C
:100F300011C08091D80080618093D8008AE18A95A1
:100F4000F1F700C09091D900892F817090FF82E065
:100F50008093120381E090911203913009F080E0B8
:100F600008950C9495070E94B107809305010E9493
:100F70009507882321F00E94C207789408950E9463
:100F8000C807FBCF63E070E086E091E00C94C21CE0
:100F900063E070E086E091E00C94CB1C0F931F930C
:100FA000CF93DF938C0190911F0180911E01D0E0BF
:100FB000C0E0981759F082E090E00E94A41DEC0177
:100FC000892B21F480911E0180931F0180911303CE
:100FD00090911403082B192B90E080E0012B11F065
:100FE00081E090E00E94A41D892B71F4809115038B
:100FF00080931E011092140310921303CE01DF910F
:10100000CF911F910F91089581E090E09093140388
:1010100080931303F3CF80910501811109C082ED04
:10102000ECE0F2E0A0E2B1E001900D928A95E1F7E8
:101030000C943108CF93DF93D62FC42F0E94BA2689
:10104000882351F08D2F0E94BA26882329F08C2FF7
:10105000DF91CF910C94DA268C2FDF91CF910C94F5
:10106000FB26089583E0089560E080E591E00C940C
:10107000CD18CF93DF93D82FD878C82FC47460E0F1
:10108000DD2329F18DE491E00E94CD1860E086E433
:1010900091E0CC2329F160E088E491E00E94CD1832
:1010A00060E08FE391E00E94CD1860E0DD2311F154
:1010B00089E391E00E94CD1860E084E391E00E9412
:1010C000CD18C11122C060E08AE291E021C08AE41B
:1010D00091E00E94CD18C11109C060E082E491E066
:1010E0000E94CD1860E08CE391E0DDCF60E084E405
:1010F00091E0D4CF86E391E00E94CD1860E0CC234C
:1011000059F082E391E00E94CD1860E08DE291E019
:10111000DF91CF910C94CD1880E391E00E94CD181F
:10112000D2CFCF93DF93D82FD171C82FC27260E096
:10113000DD2329F187E291E00E94CD1860E080E292
:1011400091E0CC2329F160E082E291E00E94CD1889
:1011500060E089E191E00E94CD1860E0DD2311F1AB
:1011600083E191E00E94CD1860E08EE091E00E9462
:10117000CD18C11122C060E084E091E021C084E27A
:1011800091E00E94CD18C11109C060E08CE191E0AE
:101190000E94CD1860E086E191E0DDCF60E08EE155
:1011A00091E0D4CF80E191E00E94CD1860E0CC23A3
:1011B00059F08CE091E00E94CD1860E087E091E06A
:1011C000DF91CF910C94CD188AE091E00E94CD1868
:1011D000D2CF60E084EF90E00E94CD1860E08EEE08
:1011E00090E00C94CD1883E00E94BA26882329F061
:1011F00060E08EED90E00C94CD1881E00E94BA265C
:10120000882321F060E08EEC90E0F5CF82E00E9430
:10121000BA2660E0882319F08EEB90E0ECCF8EEADE
:1012200090E0E9CFCF930E94E9080E9434080E9421
:10123000F3080E9434080E946228C82F0E94882860
:101240008C2B0E9439080E946228C82F0E9488288F
:101250008C2BCF910C949108609122037091230301
:1012600080912403909125030E94162B61337547CA
:101270008105910510F00C94F3190E94DF180C946D
:1012800012090F931F93CF93DF938C01EB018A8197
:10129000882351F00E94FB2A60932203709323035A
:1012A00080932403909325030C328DE51807E1F118
:1012B00048F40A328DE51807D1F00B321D4521F1B3
:1012C000C1E02CC00D328DE5180709F448C00E327C
:1012D0001D45B1F7CA81CC2389F10E94EF2A909372
:1012E00021038093200386EE0E946B200BC0CA81ED
:1012F00081E0CC2361F00E94DA2643E062E081E0E5
:101300000E941A08C0E00AC0CA8182E0F2CF0E949F
:10131000FB2643E062E081E00E941A088C2FDF91F7
:10132000CF911F910F910895CA8183E0CC2319F0CA
:101330000E94DA26E7CF0E94FB26F0CF86EE0E94BD
:10134000962080912003909121030E94072B8639DB
:10135000910520F78CEA90E00E94BC0ADFCFCA8199
:10136000CC2309F4ADCF0E94040F0E94E815D6CF1C
:1013700081E008950C94410908950C94BC091F93D1
:10138000CF93DF9300D000D00F92CDB7DEB7498363
:101390005A836B833091C80389819A8131111DC0B2
:1013A0006623B9F02223A9F00E94CD27182F682FB9
:1013B00089819A810E94762769817A81812F0F9095
:1013C0000F900F900F900F90DF91CF911F910C9481
:1013D000340B0E94A427182FEFCF0E94CD276981DC
:1013E0007A81EDCFFC01262F40815181628173818A
:1013F00084810C94BF09CF93DF93EC0160E00E94DD
:10140000F209BE01DF91CF910C94BD09FF920F93B9
:101410001F93CF93DF93E82FF0E0EA52FD4FF49053
:10142000C82FC695C695C695D0E0FE01EA59FC4F77
:101430000491877010E0082E02C0159507950A9454
:10144000E2F701701127CA5ADC4FFE01C491D0E0C7
:1014500002C0D595C7958A95E2F7C170DD270115C1
:10146000110519F081EE0E946B20209719F086EE8D
:101470000E946B208F2D0E94BE20CD2B19F086EE8E
:101480000E949620012B41F081EEDF91CF911F91B8
:101490000F91FF900C949620DF91CF911F910F91A7
:1014A000FF900895EF92FF920F931F93CF93DF93D6
:1014B0008C01F62E8AE0E82EF8018491882309F445
:1014C00054C0813009F04DC0E8012196FE0184919D
:1014D000813091F42196FE0184910E94BE208E01FC
:1014E0000F5F1F4F8F2D815038F3EFE9FFE03197E9
:1014F000F1F700C00000F7CF823039F4E8012296FE
:10150000FE0184910E946B20EACF833039F4E80118
:101510002296FE0184910E949620E1CF8430F9F654
:10152000E8012296FE01249190E080E0FE013196D0
:101530002053330B2A30310548F0019780F2EFE950
:10154000FFE03197F1F700C00000F7CFE89EA0015F
:10155000E99E500D1124C901840F951F2491EF01BC
:10156000E5CF0E94060AE801BACFDF91CF911F9123
:101570000F91FF90EF90089560E00C94520A0E9442
:101580000429811102C00E94A8290E9470150C94A0
:101590000B080E9448140C94EF0508950E94E9205E
:1015A0000E94CD0A2FEF84E39CE0215080409040C0
:1015B000E1F700C000000C94562B0F931F93CF93BC
:1015C000DF93EC0161E00E94F2098C01BE010E94F0
:1015D0008E13882389F1BE01C8010E94BA098823AD
:1015E00059F1BE01C8010E94C01A882329F1BE0129
:1015F000C8010E94121B8823F9F0BE01C8010E9495
:10160000351C8823C9F0BE01C8010E94DB1688235F
:1016100099F08A81882339F001158CE5180751F07B
:101620000F3D1C4579F0CE01DF91CF911F910F91B5
:101630000C94B8090E94CE0A80E0DF91CF911F91EF
:101640000F9108950E94A829F7CF08950C94250BB7
:1016500081E008950C94280BCF93C82F0E94260B8D
:101660008C2FCF910C942A0B972F70E026E0929F3D
:10167000600D711D1124FB0190E3899FE00DF11DA8
:101680001124EE0FFF1FEA5AFE4F859194910895A1
:10169000CF93DF930E94340B0E941B0CEC01811549
:1016A00023E5920790F5811532E5930708F096C07F
:1016B00081159042C8F4C11581E0D80788F4C53A75
:1016C000D10548F4C430D10558F4C130D10541F0FA
:1016D000D0E0C0E005C0CE01805E91090897C0F758
:1016E000CE01DF91CF910895C11591E5D90708F09A
:1016F00070C0C11520E5D20708F04EC0C11530E416
:10170000D30730F3DF70D06AEBCF811546E594073D
:10171000F0F4C11585E5D80708F075C0C11594E54A
:10172000D90708F06BC0CE018370992721E030E023
:1017300002C0220F331F8A95E2F7C695C69590E244
:10174000C99FE0011124C22BD32BDA68C9CF8115C0
:101750002AE5920778F4811539E5930708F05EC011
:10176000811548E5940708F4B3CFD82FCC27C06F74
:10177000D06AB6CF90568115904208F0A9CF8D2F30
:101780008F710E94B20C90E0982F882788279F7154
:101790009C012C2BE90140C0CE01E4E09695879591
:1017A000EA95E1F783702C2F26952695237040E269
:1017B000249F90011124382B8C2F8370C1E0D0E03E
:1017C00002C0CC0FDD1F8A95E2F7C22BD32BDC6859
:1017D00087CFDC2FCC27C16FD06A82CF8370992747
:1017E00021E030E002C0220F331F8A95E2F7C69550
:1017F000C69580E2C89FE0011124E7CFDC2FCC27FB
:10180000C46FD06A6DCF8C2F0E94B20CC82FD0E06D
:10181000DC2FCC27CC27DF71D06262CF8F700E9483
:10182000B20C34E0D695C7953A95E1F7CF709C2F6E
:10183000EC01D06955CF82389105B1F1B0F4813314
:10184000910509F475C048F48932910509F469C01D
:101850008A32910509F473C008958533910509F41E
:1018600059C08933910501F10895833E9105A9F18D
:1018700038F4803E9105F9F0823E910549F10895D2
:10188000863E9105A9F1873E9105C9F1843E9105F7
:1018900019F52091510721FF1FC08091500784FD49
:1018A00014C087EE90E00895209150072370A1F0B6
:1018B00080EE90E008952091500720FD47C03091C0
:1018C000510730FF09C024FF44C090E080E004C00D
:1018D0002091500722FDF7CF08952091500722FD57
:1018E0003BC03091510730FDE3CF24FFF5CFEDCF62
:1018F0002091500723FFF0CF24FDE7CFD2CF2091D6
:10190000500723FD2CC03091510731FFEECF84EEFC
:1019100090E008952091500725FFDECF89E290E006
:1019200008952091500725FFD7CF85E390E00895D3
:101930002091500726FFD0CF8AE290E008952091B1
:10194000500726FFC9CF81E390E0089589E390E036
:10195000089583EE90E0089582EE90E0089586EE7B
:1019600090E008959091500792FF06C0282F2871AB
:101970002830F9F4877F846093FF06C0282F2871F0
:101980002831F1F4877E84612091510720FF06C041
:10199000382F38713830D9F4877F816021FF06C035
:1019A000282F28712831D1F4877E816194FD877EAC
:1019B0000895282F24712430F9F68B7F8860DCCFBE
:1019C000282F2471243101F78B7E8861DDCF382FD9
:1019D0003171313019F78E7F8860E0CF282F217167
:1019E000213121F78E7E8861E1CFEF92FF920F9334
:1019F0001F93CF93DF93EB01E82FD11110C0442345
:101A000021F0F0E0EA58FC4FE4916E2F7E2F8E2FEC
:101A1000DF91CF911F910F91FF90EF9008950D2FBF
:101A200010E0282F30E0442329F02A583C4FF901D8
:101A3000249130E0F6E0CF9FC0011124EFEFF0E0F9
:101A4000BF010E94FB31AB018C2F90E0880F991FE2
:101A5000A5E5A49FB001A59F700D1124861B970BCF
:101A6000982F990F980FBF01601B710B629FD001D7
:101A7000639FB00D729FB00D11248B2F9D9FB001FD
:101A80001124672F7727EF01C61BD70BBE01629F7A
:101A9000E001639FD00D729FD00D11247F01E91AE0
:101AA000F108E09EB001E19E700DF09E700D1124D2
:101AB000672F7727E61BF70BE29F8001E39F100D4E
:101AC000F29F100D1124E12F722F4230510599F031
:101AD00048F44115510569F04130510581F0EB2F73
:101AE0008D2F07C04430510569F080F04630510514
:101AF000B1F76E2F8DCFE22F7B2F812FFACFE22F00
:101B00007D2FF7CFEB2F822F712FF3CF7B2F822FDB
:101B1000ED2FEFCF41E00C94F50C30E020E0869FF4
:101B2000212D969F200D311D1124C9010895AC016E
:101B30008230910508F408959FEF413E8EE15807E9
:101B400040F49A0195E0369527959A95E1F798E04B
:101B5000920F61E0E62FE90FFF27FF1F9F013595E8
:101B60002795822F229FF001239FF00DF00D112465
:101B70004E175F0738F49FEF920F961758F78FEFC5
:101B8000860F08952F3FE9F361E0620FF6CFE42F4F
:101B9000F0E0EE0FFF1FE05BFE4F408134EE439F0D
:101BA000412D1124E72FF0E050E0445E5F4FDA0151
:101BB000A21BB1099D01B7FF03C0319521953109E1
:101BC00093E0220F331F9A95E1F7AF01421B530BAD
:101BD0009A0157FD20E0279F212D1124722F08958F
:101BE000322F50E0FA01EE0FFF1FE05EFE4F91A989
:101BF000905297FD9195440F551FFA01E05BFE4FFF
:101C00002081231B330B290F311D97FD3A95620F5D
:101C10000895EF92FF920F93970195E0099F200D91
:101C2000311D11242F3F310519F010F02FEF30E056
:101C30002095382F320F08F43FEF832F0F91FF903C
:101C4000EF900895EF92FF920F939701201B3109B7
:101C50002F3F310519F010F02FEF30E0322F309583
:101C6000482F430F08F44FEF842F620F0F91FF901E
:101C7000EF9008950C948A0DEF92FF920F931F93AB
:101C8000CF93DF93EC01498128813FEF340F61E06E
:101C9000640FAFEFA20FE1E0E20F042F10E0A217F4
:101CA00080F486E0809FE001819FD00D1124CC5A02
:101CB000DC4FCA0FD11D588170E1570F08F45FEF58
:101CC0005883822F90E056E0509FE001519FD00D45
:101CD00011248E010C5A1C4F7801080F191FE801BE
:101CE000588170E2570F08F45FEF5883E63048F4EC
:101CF000E701CE0FD11D588170E1570F08F45FEF57
:101D00005883683018F1632F70E0A21708F45AC0A6
:101D100026E0269FA001279F500D11244C5A5C4FAE
:101D2000DA01A80FB91F2C9130E1230F08F42FEF2F
:101D30002C93E63008F03FC0E40FF52FF11D208111
:101D40003DE0230F08F42FEF208335C070E0A21789
:101D500080F456E0569FE001579FD00D1124CC5AD5
:101D6000DC4FCA0FD11D58811DE0510F08F45FEF01
:101D7000588356E0569FE001579FD00D11248E01E5
:101D80000C5A1C4F7801B801680F791FEB0158817C
:101D900010E1510F08F45FEF5883E63048F4E70193
:101DA000CE0FD11D58816DE0560F08F45FEF5883B8
:101DB000341708F4A8CFDF91CF911F910F91FF90B6
:101DC000EF90089546E0469F9001479F300D112403
:101DD0002C5A3C4FA20FB32FB11D2C913DE0230F85
:101DE00008F42FEF2C9394CF45E050E06CE170E0C5
:101DF00082E794E00C94E53245E050E06CE170E05D
:101E000082E794E00C940333E2E7F4E085E080831A
:101E10008091DE029091DF02A091E00281839283A3
:101E2000A3838FE784830C94FC0E80E008950F93C6
:101E30001F93CF93DF93C82FD62F8A010E94150FCF
:101E400096E0C99FB0011124605E7E4F6D0F711D39
:101E5000FB0190819F3F29F0F801E80FF11D90836D
:101E60008F5FDF91CF911F910F910895E091F5025F
:101E7000F091F6020994E091F102F091F2020994D6
:101E8000BF92CF92DF92EF92FF920F931F93CF9367
:101E9000DF936C017B01FC01C0818BE0C89FC02DEA
:101EA00011241BE01C0F012F173308F006E360918B
:101EB00076046695669580917704909178040E94E7
:101EC0008D0DB82ED0E0C01770F081E0163308F009
:101ED00080E0DF91CF911F910F91FF90EF90DF9005
:101EE000CF90BF900895FE01E454FE4F8081F6012B
:101EF0009181892391F060917304709174048091B1
:101F000075042B2D4C2FF70109950E943A0E462F90
:101F1000282F672FCE010E943B0F2196D4CF67EC6C
:101F20007DE00C94400F60EF7DE00C94400F2F9209
:101F30003F924F925F926F927F928F929F92AF9259
:101F4000BF92CF92DF92EF92FF920F931F93CF93A6
:101F5000DF93CDB7DEB72B970FB6F894DEBF0FBE79
:101F6000CDBF8C832B015F834E83FB01F0818BE01F
:101F7000F89F802D11248983855F8A838B83873323
:101F800010F026E32B8330917B043D839981892FC8
:101F900090E09B878A87880F991FFC01E05EFE4FC7
:101FA0006F01FC818F2F90E09C012F5F3F4F39879D
:101FB0002887EB81FA85FE17F0F081E02A8126332D
:101FC00008F080E02B960FB6F894DEBF0FBECDBFB1
:101FD000DF91CF911F910F91FF90EF90DF90CF9005
:101FE000BF90AF909F908F907F906F905F904F9039
:101FF0003F902F900895EA85FB85E454FE4F808141
:10200000F2019181892301F12090730430907404CE
:102010002885398525583B4F39013C81398310E0AB
:1020200029813D812317C8F020917504129F112D3D
:102030001124B101812F0E943A0E462F282F672FBD
:102040008A859B850E943B0F8A859B8501969B878D
:102050008A8792E0C90ED11CACCFF30181913F0178
:10206000F601A0A8A81ABB0881A8F3018781881AE5
:102070009908AA9C9001AB9C300D300D1124889CCE
:10208000C001899C900D900D1124820F931F0E9416
:10209000970D082FF301EE0FFF1FEB57F4406091EF
:1020A0007604858996890E948D0D7C019401A50195
:1020B000B101812FEE81FF8109951B01F981FF5F3D
:1020C000F983182FADCF49E05EE0BC0180E00C94AD
:1020D000970F42E25EE0BC0180E00C94970FBF9244
:1020E000CF92DF92EF92FF920F931F93CF93DF93E4
:1020F0007C01FC01C0818BE0C89FC02D11241BE036
:102100001C0F012F173308F006E3609173047091E0
:102110007404809175040E943A0ED62EC72EB82EF4
:10212000D0E0C01770F081E0163308F080E0DF9156
:10213000CF911F910F91FF90EF90DF90CF90BF90C4
:102140000895FE01E454FE4F8081F70191818923B7
:1021500031F02B2D4D2D6C2DCE010E943B0F219681
:10216000E0CF8F929F92AF92BF92CF92DF92EF9289
:10217000FF920F931F93CF93DF937C01FC01C081EB
:102180008BE0C89FC02D11241BE01C0F012F1733BB
:1021900008F006E3C0907404D0907504D0917304E5
:1021A0006D2F7C2D8D2D0E943A0EB62EA72E982EC7
:1021B000609176046D0F7C2D8D2D0E943A0ED62EE7
:1021C000C72E882ED0E0C01788F081E0163308F0C3
:1021D00080E0DF91CF911F910F91FF90EF90DF9002
:1021E000CF90BF90AF909F908F900895FE01E454E0
:1021F000FE4F9081F7018181892359F0282D4D2DC3
:102200006C2D90FD03C0292D4B2D6A2DCE010E940F
:102210003B0F2196D8CFBF92CF92DF92EF92FF92E1
:102220000F931F93CF93DF938C01FC01C0818BE050
:10223000C89FC02D11245BE0F52EFC0EDF2CF6E3C9
:10224000FF1510F446E3D42EC0907404B0907504CA
:102250002091760430E4E32E3E2D329F312D11245F
:10226000E32ED0E0CD1578F081E035E33F1508F49A
:1022700080E0DF91CF911F910F91FF90EF90DF9061
:10228000CF90BF900895FE01E454FE4F8081F80185
:1022900091818923D9F0FE01EE0FFF1FE05EFE4F12
:1022A00060A9E69EB001112495E0759567959A9511
:1022B000E1F780917304680F7C2D8B2D0E943A0EFC
:1022C000462F282F672FCE010E943B0F2196CACFA1
:1022D000DF92EF92FF920F931F93CF93DF938C01C6
:1022E000FC01E454FE4F8081682381F1D090740496
:1022F000D0917504C0917304EC2EF12C0E94B6327B
:10230000282FC7018C549F4F68E671E00E940F325E
:102310008E199F0997FD03969595879595958795B5
:1023200023706C2F289F600D11247D2D8D2F0E940E
:102330003A0E462F282F672FC801DF91CF911F91AA
:102340000F91FF90EF90DF900C943B0FDF91CF91B6
:102350001F910F91FF90EF90DF900895DF92EF9221
:10236000FF920F931F93CF93DF938C01FC01C281E7
:10237000C11125C06091760420E1620F08F46FEF6F
:1023800080917704909178040E948D0D6AE070E04E
:102390000E94FB31892B51F40E94B63266E370E053
:1023A0000E940F32F80161810E9468118C2FDF9129
:1023B000CF911F910F91FF90EF90DF900895C08112
:1023C0008BE0C89FC02D11248BE0D82EDC0E8D2D04
:1023D000F6E3FD1508F486E3D0E0E82EF12CCE15E7
:1023E000DF0534F0C1E0F5E3FD1500F7C0E0DECF16
:1023F000F8016181CE010E9468112196F0CFE09131
:10240000F302F091F40209942F923F924F925F925F
:102410006F927F928F929F92AF92BF92CF92DF92F4
:10242000EF92FF920F931F93CF93DF93CDB7DEB759
:1024300029970FB6F894DEBF0FBECDBF3C01DC017B
:102440000C918BE0089F002D1124BBE0B00FB987E1
:102450004B2EB13310F090E3492EF3018281882393
:1024600061F040E060E080E00E94FF11E4E5F3E00D
:1024700080E3DF011D928A95E9F710E0512CFE01FF
:1024800031966F0104151505F4F081E0F985F033FC
:1024900008F080E029960FB6F894DEBF0FBECDBFDE
:1024A000DF91CF911F910F91FF90EF90DF90CF9030
:1024B000BF90AF909F908F907F906F905F904F9064
:1024C0003F902F9008954801F7E08F2299245801FA
:1024D00083E0B594A7948A95E1F726E0289DF00162
:1024E000299DF00D1124EC5AFC4FEA0DFB1D3080A4
:1024F000A6016A2D882D0E94170F282E76018E2D99
:102500008C198215A0F0232D31E0231B08F420E064
:10251000A6E0A89DC001A99D900D11248C5A9C4F46
:10252000A80EB91EF50120830F5F1F4FABCFD70157
:10253000EC91F0E0E454FE4F8081F3019181892316
:1025400021F1232D35E5231B08F420E06AEA621B04
:10255000709174042AEA332D230F08F42FEF309181
:102560007504822F880F820F8E5F282F239F212DC5
:102570001124822F0E943A0E462FD7019C91282FBA
:10258000672F892F90E00E943B0FBFEFEB1AFB0AE9
:10259000B6CF6F927F928F929F92AF92BF92CF925F
:1025A000DF92EF92FF920F931F93CF93DF93CDB7FC
:1025B000DEB728970FB6F894DEBF0FBECDBFDC01A3
:1025C00012968C91882371F040E060E080E00E94D8
:1025D000FF11E4E5F3E080E3DF011D928A95E9F75E
:1025E0001092260384E5C82E83E0D82E00E07724DD
:1025F0007A9490EDA92EB12C20EC622E3FE2832E2E
:10260000912C760110E080912603812B09F071C096
:102610000E94B632853595400CF06BC0F601708291
:10262000AE014F5F5F4F602F812F0E94170F8823ED
:10263000B1F0F7012081E981F0E0213D08F461C0AB
:10264000205D330B629EC001639E900D1124B40186
:102650000E94FB31262F4FEFCF010E943B0F1F5FDF
:10266000F6E0EF0EF11C183071F60F5F2FEFC21A73
:10267000D20A063031F6809126038F5F8D3108F43F
:102680004AC01092260328E733E087E06AE573E04A
:102690009EEFD901E4E5F3E0873021F442A54F3FF6
:1026A00009F492A74C914F3F21F49C9316964C93BA
:1026B0001697319611966E177F0771F78150265045
:1026C00031098111E6CF80E028960FB6F894DEBF7D
:1026D0000FBECDBFDF91CF911F910F91FF90EF9073
:1026E000DF90CF90BF90AF909F908F907F906F9032
:1026F0000895D7018C9181508E3F08F091CF8C9333
:102700008FCF279DC0011124B5010E94FB31462FB8
:1027100020E060E0A1CF80932603D5CFAF92BF9297
:10272000CF92DF92EF92FF920F931F93CF93DF939D
:10273000CDB7DEB728970FB6F894DEBF0FBECDBF7A
:102740008B01FB018281D12C882341F0AE014F5FC8
:102750005F4F608181810E94170FD82EC0902703A0
:10276000ED2CF12CC7018C0D911D099764F188E0C7
:1027700090E05C01AE18BF08B701685D7C4FA50111
:1027800088E293E00E94DC32B701605D7C4FA501D6
:1027900080E393E00E94DC32A501440F551FB7018E
:1027A000660F771F605C7C4F80E493E00E94DC3210
:1027B000B701685C7C4FA50188E393E00E94DC329E
:1027C000CA94C0922703F0902703DE01119640E0DF
:1027D000842F8F0DD4121CC0809327038091720424
:1027E0008C7F8C3119F4C8010E943C0E81E0289640
:1027F0000FB6F894DEBF0FBECDBFDF91CF911F9112
:102800000F91FF90EF90DF90CF90BF90AF90089521
:102810005D91252F30E090E0BC01695D7C4FF901AE
:10282000EE0FFF1FE05BFE4FE080FB01E182220F15
:10283000331FF901E05EFE4F21A9FB012187518B77
:10284000880F991FFC01E95DFC4F128E118E4F5FBE
:10285000BFCF089508950E9429140C942A14089556
:102860000895CF93DF93FC01C0818BE0C89FC02DFA
:102870001124D5EFDC0FC73308F0C6E36C2F8D2F82
:102880000E942F146C2F8D2FDF91CF910C94301458
:102890004F925F926F927F928F929F92AF92BF9270
:1028A000CF92DF92EF92FF92CF93DF93609150032C
:1028B0007091510380915203909153030E94162B03
:1028C0006B017C010E94FB2A4B015C01809250034A
:1028D00090925103A0925203B0925303A091270308
:1028E000E7E2F3E08A2F90E04FEF5FEF60E070E007
:1028F0004C195D096E097F09A9132BC0809327032A
:10290000D0918403C0E0D11108C080917204C82F17
:10291000C37019F0C82FC695C6958091F201813019
:1029200009F441C0882341F1823009F4BBC08330EF
:1029300009F4C3C0DF91CF91FF90EF90DF90CF906B
:10294000BF90AF909F908F907F906F905F904F90CF
:102950000895218D328D2901712C612C4415550566
:102960006605770520F481509F5F3296C5CF2C0D08
:102970003D1D328F218FF8CF1092F30180927704A2
:1029800090927804A0927904B0927A0489E2E7E206
:10299000F3E0ABE7B4E001900D928A95E1F781E0B6
:1029A0008093F201C7CF8091F601C81316C09091B1
:1029B000720493702091F70130E081E092171306C2
:1029C00009F480E081708093F501CB3078F4EC2F2E
:1029D000F0E0E55AFC4C0C94423281E0F3CF8823BE
:1029E00059F040E060E080E00E94FF1180E004C008
:1029F00083EF91E00E946F109091F3019F5F90939D
:102A0000F30181110CC082E08093F2018091F50105
:102A1000811105C0C11103C083E08093F201D1117F
:102A200089CF0E942B1483EF91E0DF91CF91FF902B
:102A3000EF90DF90CF90BF90AF909F908F907F905E
:102A40006F905F904F900C94311483EF91E00E944F
:102A5000B110D2CF83EF91E00E940B11CDCF83EF65
:102A600091E00E948F0FC8CF83EF91E00E94930FF7
:102A7000C3CF83EF91E00E94AE11BECF83EF91E010
:102A80000E940412B9CF83EF91E00E94C912B4CF23
:102A900083EF91E00E946310AFCF83EF91E00E943B
:102AA0006910AACFC093F60180917204837080935D
:102AB000F7010E94360F83E073CF60917704709125
:102AC00078048091790490917A040E94162B6031E9
:102AD00071058105910508F42DCF1092F2012ACFDE
:102AE000E091EF02F091F002099510927B048FEFD4
:102AF0009FEF909395048093940490939704809310
:102B00009604909399048093980490939B048093E7
:102B10009A0490939D0480939C0490939F048093C7
:102B20009E049093A1048093A0049093A3048093A7
:102B3000A204109227039093410380934003909343
:102B400043038093420390934503809344039093FF
:102B500047038093460390934903809348039093DF
:102B60004B0380934A0390934D0380934C039093BF
:102B70004F0380934E030E940429811104C00E94D8
:102B8000A8290E94040F0E94F40E809172048C7F89
:102B900011F40C94040F08959091720421E092278F
:102BA000909372041092F20181110C94FC0E08951E
:102BB00081E00C94CC1580917204837011F4109212
:102BC000F201809172048C7F816080937204089579
:102BD0000E94DB150C94FC0E90917204937099F096
:102BE000811109C09460909372041092F2016623DF
:102BF00051F00C94FC0E8B3010F09862F4CF880FDB
:102C0000880F982BF0CF089561E00C94EC15682F95
:102C1000909172049695969581E0890F8B3008F01B
:102C200081E00C94EC1581E00C940716682F9091CC
:102C30007204969596958FEF890F09F48AE00C94AB
:102C4000EC1581E00C94161690917204937061F06B
:102C50008093730460937404473908F046E9409305
:102C6000750421110C94FC0E0895A2E7B4E01196AE
:102C7000EC911197F0E0282F13964C911397129630
:102C80006C91CF0108960C94241681E00C943516B3
:102C9000E2E7F4E09181282F43816281E92FE85037
:102CA000FF0BCF010C94241681E00C944816E2E748
:102CB000F4E0628128E0620F08F46FEF9181282F21
:102CC0004381892F90E00C94241681E00C945716D0
:102CD000E2E7F4E0628128E0621B08F460E09181A1
:102CE000282F4381892F90E00C94241681E00C94C6
:102CF0006816E2E7F4E0438128E0420F08F44FEF62
:102D00009181282F6281892F90E00C94241681E014
:102D10000C947916E2E7F4E0438128E0421B08F4C2
:102D200040E09181282F6281892F90E00C94241635
:102D300081E00C948A16209176043AE0230F08F47F
:102D40002FEF2093760481110C94FC0E089581E0FE
:102D50000C949B16209176043AE0231B08F420E0A3
:102D60002093760481110C94FC0E089581E00C945C
:102D7000AA160895FC01EE0FFF1FE80FF91FEC558E
:102D8000FB4F6183408322830895E4EAF4E081836A
:102D900060834283339695E0E634F907C1F70895DE
:102DA00066E370E084EA94E00C943317FA01811131
:102DB00001C0FB0109940F931F93CF938C01FB017A
:102DC000C281CC2309F44DC00E9462288272F801AE
:102DD000E35CFC45E431F10538F4EA59FC4C0C9411
:102DE00042320E94D815C0E08C2FCF911F910F91D5
:102DF000089541E256E163E176E10E94D616F3CFF1
:102E000043E156E161E276E1F8CF44E556E165E45D
:102E100076E1F3CF45E456E164E576E1EECF46E7AF
:102E200056E165E676E1E9CF45E656E166E776E10B
:102E3000E4CF48E956E167E876E1DFCF47E856E1BD
:102E400068E976E1DACF46EB56E167EA76E1D5CF7D
:102E500047EA56E166EB76E1D0CF81E00E940416A6
:102E6000C2CFC1E0C1CF539A4BB1477F5BB158602D
:102E7000EFB7F8949B01220F331F260F371F280F3F
:102E8000391F2817390741F4EFBF8FE594E0019708
:102E9000F1F700C000000895DC016D91CD0178E0EC
:102EA0005BB9000000C067FF4BB9660F000000C0AF
:102EB00000C000C04BB900C07A9591F7E2CFCF9225
:102EC000DF92EF92FF920F931F93CF93DF936C01EA
:102ED0007B0164E670E088E70E94281EEC0197FD04
:102EE00012C010E000E0F601E00FF11F849164E6EB
:102EF00070E00E94841EEC01892B29F40F5F1F4FA4
:102F00000E151F0581F70E94071FCE01DF91CF919B
:102F10001F910F91FF90EF90DF90CF900895E6E41E
:102F2000F5E080E092E0DF019C011D9221503040ED
:102F3000E1F7F0934B07E0934A078FEF9FEF9093F1
:102F4000B1038093B00308950E9432088093AC03CC
:102F500080FD0FC080E88093AB030E94221E6DE0CD
:102F600070E08DE894E00E945F17892B21F080E0EB
:102F7000089580E2F0CF8091AC0363E070E081FDC2
:102F800026C08AE894E00E945F17892B81F76DE0E4
:102F900070E08AE794E00E945F17892B41F70E9456
:102FA000FB2A605A75418F4F9F4F6093460770937D
:102FB000470780934807909349070E948F1781E045
:102FC0008093AF038093AE031092AD03089587E81A
:102FD00094E0D9CF2091AB0336E0839FC001112448
:102FE000629F800D911D1124811522E0920714F03B
:102FF00090E080E08A5B9A4F90934B0780934A075A
:10300000089520914A0730914B0720543540409154
:10301000AB03642F70E0C9010E94FB31481B4630AE
:1030200010F4240F311D211582E0380710F030E034
:1030300020E02A5B3A4F30934B0720934A070895CC
:103040001F93CF93DF93162F8A3031F481E0DF9105
:10305000CF911F910C949A188D3011F480E0F7CF26
:10306000C0914A07D0914B0796E0FE01A5E8B3E076
:1030700001900D929A95E1F7803EC8F086E0FE013E
:1030800011928A95E9F711111EC0C0914A07D0919B
:103090004B0746E050E0BE0185E893E00E94CF3246
:1030A000892BF9F4DF91CF911F910C940118F6E070
:1030B0008F9FB001112466567B4F46E050E0CE0151
:1030C0000E94C632E0CFE0914A07F0914B079F0182
:1030D0002A5F3F4F2E173F07C1F280818095819371
:1030E000F9CFC654D540CE0125E0969587952A950F
:1030F000E1F721E030E0A90102C0440F551F8A9595
:10310000E2F7CA014091B0035091B103842B952B93
:10311000259645E0D695C7954A95E1F702C0220F5E
:10312000331FCA95E2F7822B932B9093B1038093C0
:10313000B003B8CFCF93382FE0914A07F0914B07F7
:10314000E654F5402091AB03622F70E0CF010E945E
:10315000FB31281B822F332369F066E00E94EF3198
:10316000C82FC15010F4CF91089560E080E20E9412
:103170002018F7CF9F01280F311D2115324018F07C
:1031800080E0F0E0E0E08E0F9F2F911D8A5B9A4F68
:1031900090934B0780934A07E6CF1F93CF93DF931B
:1031A000EC01162FFE018491811104C0DF91CF91B3
:1031B0001F910895612F0E9420182196F3CF0E943D
:1031C000FB2A605A75418F4F9F4F6093460770935B
:1031D000470780934807909349078091AE03811178
:1031E00008C062E070E088E794E00E945F17892BD6
:1031F00019F08091AE03089581E08093AE03F9CF7A
:103200002F923F925F926F927F928F929F92AF9296
:10321000BF92CF92DF92EF92FF920F931F93CF93C3
:10322000DF932091B0033091B1032115310531F0C6
:103230008091AD0361E070E0882399F0DF91CF9138
:103240001F910F91FF90EF90DF90CF90BF90AF90C4
:103250009F908F907F906F905F903F902F900895F8
:103260008F5F082F10E01B01082E02C0220C331CB8
:103270000A94E2F7A90142215321452B89F3909149
:10328000AC0390FD44C08295880F80768093FA014C
:10329000980136952795369527952093FD01815EF7
:1032A0008093FB011092FE0124E630E047E050E0FD
:1032B00068EF71E088E70E94B31E892B09F0BECF4A
:1032C000A80125E0440F551F2A95E1F78091AC0332
:1032D00080FD2BC04A5B5A4F04E610E020E230E04C
:1032E00060E488E70E94DA1E892B09F0A7CF0E94CC
:1032F000DF18E101C095D0958091B0039091B103A2
:10330000C823D923D093B103C093B00397CF880FBC
:10331000880F880F8093FA011092FD01895F8093D6
:10332000FB0183E08093FE01BFCFEBE8F3E080E296
:10333000DF011D928A95E9F7ABEFB2E007EF12E0EB
:103340008FEFC82E82E0D82E97E0592E7724739401
:103350008D91E80129918E01240F352F311D2A5BB3
:103360003A4FE82FF0E0E557FC4F90E080E0652C05
:10337000681A872C082E01C0880C0A94EAF7790194
:10338000A12CE701B9907E01B820662D6A196770FB
:10339000962E062E000C770BDB2D01C0DD0F9A94C4
:1033A000EAF77195619571096770772701C0B69446
:1033B0006A95EAF7BD2A6081962E9B289082A39495
:1033C00068E0A612DECF019631968830910579F635
:1033D000CA16DB0609F0BCCF04E610E020E230E0BC
:1033E0004BE853E07DCF8091AE03882369F062E023
:1033F00070E086E794E00E945F17892B19F08091B6
:10340000AE0308951092AE038091AE0391E0892738
:1034100008950F931F938091AF03882319F160E003
:1034200080E00E94EA170E942C090E9400198091F6
:10343000AE038823B9F00E94FB2A00914607109141
:1034400047072091480730914907601B710B820B99
:10345000930B6F3F7F4F8F4F9F4720F41F910F912A
:103460000C94F3191F910F910895AF92BF92CF92D0
:10347000DF92EF92FF920F931F93CF93DF937C0124
:103480005B01C42FD22FFC0182818823F9F0409385
:10349000B4030E94EF2A9093B3038093B20380E2B7
:1034A0008C0F883008F061C0C77081E001C0880FC0
:1034B000CA95EAF7DF91CF911F910F91FF90EF909E
:1034C000DF90CF90BF90AF900C94D1201091B403B7
:1034D000141340C08091B2039091B3030E94072B54
:1034E0006C01B701C5010E94AB25C816D90690F53D
:1034F000C0E2CD0F1D17B9F080E2810F883040F493
:10350000177081E001C0880F1A95EAF70E94D82051
:10351000C83048F481E09D2F977001C0880F9A95BC
:10352000EAF70E94D120802F0E94BE20C830E8F424
:10353000D77081E001C0880FDA95EAF7DF91CF916B
:103540001F910F91FF90EF90DF90CF90BF90AF90C1
:103550000C94D82080E28C0F883038F4C77081E05A
:1035600001C0880FCA95EAF7E9CFDF91CF911F918B
:103570000F91FF90EF90DF90CF90BF90AF900895A4
:103580000F939C01CB01243F4CE5340759F1A8F47B
:10359000293DFCE53F0701F12A3D4CE53407D1F117
:1035A000283D3C4591F406E221EE41EE68ED7CE5D4
:1035B0000E94351A80E00F910895263FFCE53F07F1
:1035C000E9F0B0F0273F3C45F9F0FC018281882307
:1035D00039F11092B403EFCF07E225EE45EE69ED25
:1035E0007CE5E6CF06E221EE40EE64EF7CE5E0CF3D
:1035F00007E225EE44EE65EF7CE5DACF06E221EE48
:1036000042EE66EF7CE5D4CF07E225EE46EE67EFAB
:103610007CE5CECF08E221E045EE6AED7CE5C8CF3F
:1036200081E0C9CFCF93DF93EC01FB018281882336
:1036300009F419C1C230FCE5DF07C0F1C6319CE5D1
:10364000D90730F09E012B5F3C452930310570F5DC
:103650000E9417299093510780935007C031ECE5E1
:10366000DE0709F4CFC008F05BC0C8308CE5D8078E
:1036700009F4B6C088F5C430ECE5DE0709F4A8C04B
:10368000C0F4C2308CE5D80709F49CC08091500783
:103690008260C330DC4509F498C080915007909156
:1036A00051070E9425290E94E92080E0DF91CF91F7
:1036B0000895809150078061C630ECE5DE0709F47B
:1036C00084C0809150078860C730DC4508F47DC015
:1036D00080915007806279C0CC308CE5D80709F41E
:1036E00089C070F4809150078C60CA30ECE5DE0729
:1036F00009F46BC008F478C0809150078E7F65C0D4
:10370000CE308CE5D80709F479C0809150078B7FC3
:10371000CF30DC4508F459C0809150078F7E55C0EA
:10372000CC3FECE5DE0709F457C030F5C3318CE53A
:10373000D80709F46FC078F4C131ECE5DE0709F46D
:1037400065C0C231DC4509F0A8CF0E94E920809114
:1037500050078F773AC0C5318CE5D80709F462C0AD
:1037600008F476C0809151078160CB3FDC4509F0B9
:1037700094CF8093510791CFC115FDE5DF0709F480
:103780004DC088F4809151078D7FCE3F9CE5D907CD
:1037900081F3809151078E7FCF3FDC4550F38091BC
:1037A00051078360E6CFC230FDE5DF0709F459C059
:1037B00008F444C080E0C330DD4509F06ECF0E94BC
:1037C000AA296BCF8091500781608093500765CF05
:1037D000809150078460F9CF809151078260C9CFF2
:1037E000809150078064F1CF0E94E92080915007BA
:1037F0008068EBCF809150078D7FE7CF8091500795
:10380000877FE3CF809150078F7DDFCF8091500776
:103810008F7BDBCF80915007837FD7CF809151077B
:103820008C7FA7CF8091500782FB992790F921E0E8
:10383000922790FB82F990FB83F9C7CF80915107C3
:10384000982F909591708E7F892B90FB81F991CF65
:103850000E94E92090915007892F97FB87F98058A3
:10386000B4CF81E0ACCF81E021CFCF93DF93EB01E8
:1038700086319C4511F50E9462289A81992399F01E
:103880008A7A91E009F490E09093B503811109C020
:1038900089E20E943D280E94A12880E0DF91CF911B
:1038A000089585E3F6CF8091B503811104C089E2C4
:1038B0000E944428F0CF85E3FBCF81E0EFCF8EE17B
:1038C0004A9B02C08150E1F74A9BFECF08955A9867
:1038D00080E28A95F1F75A9A0895FC013BE03A9507
:1038E000F1F720E090E080E031E040E14A95F1F727
:1038F000880F4A9B02C08160232742E04A95F1F776
:10390000000040E14A95F1F79F5F6913EECF90E127
:103910009A95F1F799B132E03A95F1F7000040E15C
:103920004A95F1F792FB992790F992272081920FFF
:1039300090830895EF92FF920F931F93CF93DF939D
:103940000F92CDB7DEB719828C017C01E60EF11C17
:103950000E151F0561F481E09981911180E00F90AF
:10396000DF91CF911F910F91FF90EF9008950E94EA
:103970005F1C68E0CE0101960E946D1CF8018193E6
:103980008F01E6CF9093B8038093B7036093B6039B
:10399000529A5A9A08959093B8038093B70360930C
:1039A000B60352985A9AEA9AE9E6F0E080818F7C51
:1039B000808308956150770B91E001C0990F6A955B
:1039C000EAF720E031E0911108C0222391F05A9AE1
:1039D00080E28A95F1F75A980895492F482339F0E3
:1039E0005A9A232740E24A95F1F79695ECCF5A98D8
:1039F000F9CF5A98EDCFFF920F931F93CF93DF9398
:103A0000EC018C01060F111DC017D10731F4DF91B5
:103A1000CF911F910F91FF900895F9900E94671C1C
:103A200068E08F2D0E94DA1CEFCF1F920F920FB625
:103A30000F9211240F931F932F933F934F935F93F4
:103A40006F937F938F939F93AF93BF93EF93FF9366
:103A5000CF93DF930F92CDB7DEB719820E945F1C20
:103A600067E0CE0101960E946D1C082F0695069511
:103A70000695982F92959570202F2570920F292FDB
:103A80002370969596958770920F891344C089810B
:103A9000811141C08091B6038017E8F120E12A9599
:103AA000F1F75A9A529A82E08A95F1F700C0A8E09D
:103AB0000A9FC00111240091B7031091B803080FA9
:103AC000191F5A98F8016581662321F08681978134
:103AD0000E94FB1C0E94671CF0E1FA95F1F75A98CE
:103AE00052985A9A20E12A95F1F7D80112966C91D2
:103AF0001297662331F113968D919C910E949A1C26
:103B0000D801ED91FC91882311F088E001C082E09A
:103B100080830E945F1C0F90DF91CF91FF91EF9106
:103B2000BF91AF919F918F917F916F915F914F91D5
:103B30003F912F911F910F910F900FBE0F901F90EB
:103B40001895ED91FC91E1CF0F931F93CF93DF93E5
:103B50002091B603281719060CF471C08C0193E06C
:103B6000000F111F9A95E1F7C091B703D091B803E8
:103B7000C00FD11FF894529A5A9825E02A95F1F770
:103B80000000982F969595708570980F892F8370F7
:103B900096959695980F092B0E94671C00C067E0C8
:103BA000802F0E94DA1C80E18A95F1F752985A9A88
:103BB0004A9B17C087E090E04A9915C06D81662343
:103BC00021F18E819F810E949A1C81111EC0529A00
:103BD0005A9AE881F98182E08083789482E090E0CB
:103BE0000DC000C0E5CF019771F4529A5A9AE8814E
:103BF000F98181E08083789481E090E0DF91CF913A
:103C00001F910F91089500C0D7CF0E945F1C20E242
:103C10002A95F1F75A98529A80E18A95F1F76A81CC
:103C2000662321F08B819C810E94FB1C0E94671CF3
:103C3000E881F9811082789490E080E0DFCF84E021
:103C400090E0DCCF1092B9008CE08093B80008952A
:103C5000EF92FF920F931F93CF93DF93182FEB01F7
:103C60001092BC0084EA8093BC000E94EF2A7C0181
:103C70008091BC0087FF27C08091B900887F883081
:103C800029F08091B900887F8031D9F51093BB006D
:103C900084E88093BC000E94EF2A8C018091BC00D4
:103CA00087FF24C02091B900287F90E080E0283170
:103CB000B1F081E090E0203411F490E080E0919543
:103CC000819591090CC0CF3FDC0791F20E94EF2A49
:103CD0008E199F098C179D0758F28EEF9FEFDF9189
:103CE000CF911F910F91FF90EF900895CF3FDC0788
:103CF000A9F20E94EF2A801B910B8C179D0770F28E
:103D0000ECCF8FEF9FEFEBCF0F931F93CF93DF930A
:103D1000EB018093BB0084E88093BC000E94EF2AF3
:103D20008C018091BC0087FF11C02091B900287FD1
:103D300081E090E0283211F490E080E09195819547
:103D40009109DF91CF911F910F910895CF3FDC072B
:103D500041F30E94EF2A801B910B8C179D0708F3FB
:103D60008EEF9FEFEECFCF92DF92EF92FF920F9305
:103D70001F93CF93DF936B018A017901B9010E94F0
:103D8000281EE6010C0D1D1DC017D10761F424E9A2
:103D90002093BC00DF91CF911F910F91FF90EF9086
:103DA000DF90CF90089597FDF2CFB70189910E94DF
:103DB000841EEACFCF92DF92EF92FF920F931F9370
:103DC000CF93DF93C62F6A017901B8010E94281EA4
:103DD00097FD0CC0B8018C2F0E94841EE601EC0CEC
:103DE000FD1CCE15DF0511F097FF0CC024E92093D0
:103DF000BC00DF91CF911F910F91FF90EF90DF906A
:103E0000CF900895B80189910E94841EEACF84E979
:103E10008093BC0008959093BE038093BD030895E2
:103E2000E091BD03F091BE03309721F00190F08145
:103E3000E02D099480E00895E091BD03F091BE0368
:103E4000309799F020910B02222359F020915007CE
:103E500027FF07C0DC012C9111962C93119725E0C8
:103E60002C930280F381E02D099408952091BB03E7
:103E70003091BC032817390771F09093BC038093ED
:103E8000BB03E091BD03F091BE03309721F00680A3
:103E9000F781E02D099408952091B9033091BA0378
:103EA0002817390771F09093BA038093B903E09112
:103EB000BD03F091BE03309721F00084F185E02D21
:103EC0000994089585B7806885BF85B7806885BFE8
:103ED0000895089508950C94691F08950C946D1F1A
:103EE0000E94621F0E946A1F0C946B1F81E008955C
:103EF0000C94761F089508950E94E62A0E94FE05FC
:103F000080E00E94A4170E94672B0C946E1FAF9252
:103F1000BF92CF92DF92EF92FF920F931F93CF93B6
:103F2000DF93CDB7DEB72A970FB6F894DEBF0FBE8A
:103F3000CDBF0E947A1F0E947B1F0E941A07B82ED5
:103F40000E94781F882309F463C080ECC82E83E0A8
:103F5000D82E10E000E0A02E802F0E948E07E82EC1
:103F6000F601F1906F01F81609F44CC080914E04EF
:103F700081FD0E9494079F2D9E2580E0FF24F394ED
:103F8000292F2F21D1F18E83AF82EF2081E009F418
:103F900080E088870E94EF2A8160782F9A8789873E
:103FA0004E815F8168858A850E942A20F801E0544D
:103FB000FC4F8081F826F0820E94091AB1100E94FD
:103FC000DF180E94101F9091BF03891791F10E9482
:103FD000101F8093BF032A960FB6F894DEBF0FBE62
:103FE000CDBFDF91CF911F910F91FF90EF90DF90A8
:103FF000CF90BF90AF900C942C0B8F5FFF0C86304E
:1040000009F0BECF0F5F1F4F0830110509F0A3CF95
:104010008FEF89838A831B820E94EF2A8160782F29
:104020009D838C8349815A816B818D810E942A20D6
:10403000C3CF2A960FB6F894DEBF0FBECDBFDF9177
:10404000CF911F910F91FF90EF90DF90CF90BF9095
:10405000AF900895CF93DF93CDB7DEB72B970FB610
:10406000F894DEBF0FBECDBF4F83588769877A872C
:104070008B878A859B85892B21F0852F84238F3F11
:10408000D9F41E821D8285E0FE013796DE0111966D
:1040900001900D928A95E1F749815A816B817C816B
:1040A0008D819E812B960FB6F894DEBF0FBECDBFDB
:1040B000DF91CF910C94AE258091C9039091CA03F2
:1040C00001969093CA038093C903DBCFFC018081E2
:1040D00091810C940F28CF93C82F882329F18CEF5E
:1040E0008C0F813AA0F46C2F8091FF019091000217
:1040F0000E94C329882329F08C2F0E9444280E9403
:10410000A1288C2F0E943D28CF910C94A12880E2F9
:104110008C0F883048F4C77081E001C0880FCA95C1
:10412000EAF70E946528F0CFCF910895882329F1FE
:104130009CEF980F913A20F40E9444280C94A128F7
:1041400090E2980F983050F4877091E001C0990F79
:104150008A95EAF7892F0E946B28F0CF9BE5980F8C
:10416000933020F490E080E00C94361F885A873119
:1041700020F490E080E00C944C1F0895CF93C82F5A
:104180000E946B20C93349F42FEF87EE93E0215052
:1041900080409040E1F700C000008C2FCF910C943C
:1041A0009620882321F00E9465280C94A128089568
:1041B000882321F00E946B280C94A12808950E9466
:1041C00082280E9485280C94A1280E944B280C94D8
:1041D000DF200E9472280C94E520E92FE295EF7011
:1041E000E250EE3070F4F0E0E658FC4C0C944232B1
:1041F000803F19F020F4883E20F481E00895843F48
:10420000E1F380E00895883EC0F3813FD1F7F5CF18
:1042100093FB882780F908950E940F280C94ED20C5
:104220008F929F92AF92BF92CF92DF92EF92FF92C6
:104230000F931F93CF93DF937C01EB01FC0115815A
:1042400012951F70028101110E9482280E945B2832
:10425000D82E882391F00023E9F08D2F807F8034C1
:1042600021F080E28C0F8830A8F082E00E94EC28D8
:104270000E945B2891E0D82ED926CD2EC2942FE043
:10428000C222FBE0FC15C0F1EC2DF0E0E857FC4C3D
:104290000C944232D12CF1CF2D2F2F70B22E8D2FB6
:1042A000807F19F0B29490EFB9220023A9F0BB20CF
:1042B00059F080E28C0F883010F0C11109C08B2DAD
:1042C0000E9465280E94A1288C2F0E946B2014C098
:1042D0008B2D0E947528F6CF8C2F0E949620BB2034
:1042E00059F080E28C0F883010F0C11137C08B2D4F
:1042F0000E946B280E94A128EC2DE850FF0B3497F8
:1043000020F40E94101F0E942C0BCE010E94ED2071
:10431000811174C11092CA031092C903DD2009F4FF
:104320007FC10E94572880FD7BC1F70112820E9445
:1043300051280E94DA26C7010E9434230E94512886
:10434000DF91CF911F910F91FF90EF90DF90CF9071
:10435000BF90AF909F908F900C94FB268B2D0E9466
:104360007B28C8CF3D2F3F70B32E8D2F807F8032AA
:1043700019F0B29480EFB822CC2339F0C13019F192
:10438000002361F1112321F19FCF002381F011114E
:1043900006C00E9488288B290E94D120ADCF113001
:1043A000C1F70E9488288B290E948E28A5CF111161
:1043B00006C00E9497288B2D0E94D8209DCF1130D7
:1043C00009F49ACFF6CF002329F0163008F094CFE5
:1043D0008B2DE2CF153008F08FCFEDCF112359F39D
:1043E000C93349F48FEF97EEE3E081509040E0400D
:1043F000E1F700C000008C2F0E9496207DCF8D2F0A
:10440000837009F043C0011177CF2C2F2295269598
:104410002770220F220F6C2F6F70862E912CB12CDB
:10442000A12C022E04C0880C991CAA1CBB1C0A9447
:10443000D2F760E070E0CB01C4FF0FC06FE070E026
:1044400080E090E004C0660F771F881F991F2A95AF
:10445000D2F760957095809590952D2F269526958D
:104460002370682979298A299B29223049F058F438
:10447000213019F00E946C263FCF0E945A263CCF73
:104480000E947E2639CF0E94582636CF869500237B
:1044900011F08D2F8170882309F42ECF2C2F2295B7
:1044A00026952770220F220F6C2F6F70862E912C6D
:1044B000B12CA12C022E04C0880C991CAA1CBB1C78
:1044C0000A94D2F760E070E0CB01C4FF0FC06FE048
:1044D00070E080E090E004C0660F771F881F991F8E
:1044E0002A95D2F760957095809590952D2F2695F9
:1044F00026952370682979298A299B29223049F039
:1045000058F4213019F00E945127F6CE0E943F271F
:10451000F3CE0E946327F0CE0E949426EDCEFD2FAD
:10452000FF70BF2E002329F08F2F0E94DA268C2FD8
:1045300033CF8C2F0E94D8208B2D0E94FB26DCCEFF
:10454000C23F99F160F4C03FD9F0C13F39F1002377
:1045500009F444C01111B8CE8D2F8F7123C0C33F11
:1045600049F1C43FA1F7002379F12D2F2F71B22E0D
:10457000822F0E94DA2663E08B2D0E94D728BCCEC2
:10458000002341F0153008F0B7CE8D2F8F710E94B7
:104590001E27B2CE163008F0AFCEF7CF8D2F8F7119
:1045A000002359F20E94DA26A7CE8D2F8F710023A7
:1045B000C9F3C3CF002329F08D2F8F710E94C52628
:1045C0009BCE0E94A02698CE81E00E94EC2812305B
:1045D00008F492CE82E00E94EC288ECE112359F08E
:1045E000C93309F008CF3FEF87EE93E031508040A8
:1045F0009040E1F7FECE8D2F8F719FCF002319F0F1
:10460000111188CE8BCE111185CE8091C903909166
:10461000CA03029709F07ECE8C2F0E94BE207ACE6C
:10462000DF91CF911F910F91FF90EF90DF90CF908E
:10463000BF90AF909F908F9008950F931F93CF934B
:10464000DF93EC01688179818A810E9419288C01AD
:104650000E9475270E945726B801CE01DF91CF91A5
:104660001F910F910C941021CF93DF93EC018B815C
:104670009C81892B29F08881998189238F3F59F466
:10468000DF91CF910895CE010E941D23CE01DF91CD
:10469000CF910C94FB09CE010E94DD0A8111F3CF6A
:1046A0000E945B28882361F38A81882349F382E092
:1046B000DF91CF910C94EC28CF93DF9300D000D002
:1046C0000F92CDB7DEB70F900F900F900F900F9015
:1046D000DF91CF910895CF93DF9300D000D000D029
:1046E000CDB7DEB726960FB6F894DEBF0FBECDBFAE
:1046F000DF91CF9108951F93CF93DF93C091CB03A8
:1047000016E08091CC038C1304C0DF91CF911F91F0
:104710000895D0E01C9FF0011D9FF00D1124E3537C
:10472000FC4F4081518162817381848195810E9417
:104730006B232196C770E5CF4091FD035091FE0396
:104740006091FF0370910004809101049091020434
:104750000C946B231F93CF93DF9380910204807F8F
:10476000A9F48091FF03882389F08091CB03C09145
:10477000CC036091FD037091FE03A0910004B09101
:104780000104D62FD72316E0C81304C0DF91CF91C0
:104790001F91089590E0109711F0DF3F19F40196F2
:1047A0008770F2CF189F9001199F300D1124F901E5
:1047B000E353FC4F41814713F2CF40814613EFCFC3
:1047C00042814111ECCF438154814A1B5B0B463936
:1047D000510528F7809102048F7080618093020454
:1047E000F901EE52FC4F80818F70806180838DEFE4
:1047F00093E00E943423DF91CF911F910C947B238F
:10480000AF92BF92CF92DF92EF92FF920F931F93DE
:10481000CF93DF93CDB7DEB761970FB6F894DEBFC5
:104820000FBECDBF8C0185E0F801DE011D96019021
:104830000D928A95E1F7F80140815181E2808DEF78
:10484000C82E83E0D82E6091000470910104611598
:10485000710509F461C19091FD032091FE03892F38
:1048600082238F3F09F458C1A380B480F090FF03E6
:10487000F501E61BF70BFF2009F4FCC08091020450
:10488000382F307FE639F10508F0B2C0311179C018
:10489000FE2C251323C0941321C0E1101FC08F707C
:1048A0008061809302040E949C23C6010E943423ED
:1048B00080910204F80185838F2D61960FB6F894DC
:1048C000DEBF0FBECDBFDF91CF911F910F91FF9043
:1048D000EF90DF90CF90BF90AF900895AB2829F074
:1048E000842F85238F3F09F033C180E0F82FF170CA
:1048F000DF2E80FF3CC08091CB032091CC0336E0BB
:10490000821315C04D875E878D859E850E940F2876
:10491000292F22952F702230F0F0243018F59F7047
:10492000F1F0F8019581907FD1F4D12C1EC090E078
:10493000389FF001399FF00D1124E353FC4F618142
:10494000651306C06081641303C062816E110FC0DD
:1049500001968770D5CF9F7011F0882331F3805E68
:10496000883018F3C8010E943423FD2CA5CFEE2017
:1049700009F4A2CF80910204816080930204F12C9B
:104980009BCF251306C0941304C0F801EE2009F450
:104990008DC04D875E878D859E850E940C21882362
:1049A00019F1EE2009F180910204803270F020911B
:1049B000FD033091FE0338872F831986BB86AA86B4
:1049C0008C87CE0107960E94342386E0F801ADEF74
:1049D000B3E001900D928A95E1F70E94AA230E940C
:1049E0009C23FF24F39468CFC8010E943423F9CF9D
:1049F000311113C07A2DB98AA88A6E2D89890E9437
:104A00005C238DEF93E00E94342386E0F60111923F
:104A10008A95E9F70E949C23B2CF25130FC0941307
:104A20000DC0E1100BC0F8018583C8010E9434233A
:104A300086E0F60111928A95E9F73ECF4D875E87B1
:104A40008D859E850E940C21882371F2EE2061F2F3
:104A500080910204803208F4B8CF2091FD03309198
:104A6000FE033A8329831B82BD82AC828E83CE01F2
:104A70000196A9CFE639F10508F041C0FE2CEE20E1
:104A800009F4B2CF25132AC0941328C080910204E0
:104A900080FD1BC0982F907FC1F0F8018583903F67
:104AA00031F0982F907F905F8F70892B8583C8019C
:104AB0000E94342386E0F801ADEFB3E001900D923F
:104AC0008A95E1F70E949C23F7CE86E0F801ADEFCE
:104AD000B3E001900D928A95E1F7EECE4D875E87A7
:104AE0008D859E850E940C2181116FCF80910204DB
:104AF000816080930204C8010E943423DDCE7A2DA8
:104B0000B98AA88A6E2D89890E945C2386E0F60105
:104B100011928A95E9F7D6CFEE2009F465CF4D873B
:104B20005E878D859E850E940C21F82E882309F4CE
:104B30005BCF86E0F801ADEFB3E001900D928A956E
:104B4000E1F78DEF93E00E9466200E94AA23BACF7E
:104B500081E08E25CBCE86E990E008951F93CF9318
:104B6000DF93CDB7DEB72C970FB6F894DEBF0FBE3C
:104B7000CDBF4F83588769877A878B879C87CE0103
:104B800007960E940024882369F08A859B85892BDB
:104B900039F04F815885842F85238F3F09F071C0EC
:104BA00016E05FC086E0FE013796DE0111960190A7
:104BB0000D928A95E1F78A859B85892B89F38F81F0
:104BC000988589238F3F61F32091CC0330E0C901A0
:104BD0000196877099274091CB034817190671F405
:104BE0000E94E9201092CC031092CB0386E0EDEFF7
:104BF000F3E0DF011D928A95E9F7D2CF96E0929F0C
:104C0000D001939FB00D1124A353BC4FFE013196E8
:104C100001900D929A95E1F78093CC030E947B233B
:104C2000BFCF819FC001112483539C4F0E94002459
:104C30008823E9F0E091CB031E9FF0011124E35398
:104C4000FC4F4081518162817381848195810E94F2
:104C50006B238091CB0390E0019687709927809316
:104C6000CB038091CB039091CC038913DACF2C96A0
:104C70000FB6F894DEBF0FBECDBFDF91CF911F916D
:104C8000089569857A858B859C850E946B2388CFE2
:104C900008950C9448260E94492660932504709339
:104CA000260480932704909328040C94DF20089511
:104CB0000C944B260F931F9300912504109126040A
:104CC0002091270430912804602B712B822B932B89
:104CD0001F910F910C944B260F931F930091250465
:104CE0001091260420912704309128046023712319
:104CF000822393231F910F910C944B260F931F93A4
:104D00000091250410912604209127043091280455
:104D100060277127822793271F910F910C944B26B0
:104D20000C9448260C9490260E94922660932104AD
:104D30007093220480932304909324040C94DF2026
:104D400060E070E0CB010C9494266115710581053B
:104D5000910529F481E0442361F080E00895DC01AD
:104D6000CB0104C0B695A795979587954A95D2F73C
:104D700081700895482F60912104709122048091E0
:104D80002304909124040C94A5260F931F9341E0D3
:104D900050E060E070E08A019B0104C0000F111F29
:104DA000221F331F8A95D2F7C901B8011F910F91B5
:104DB0000C9494260F931F9341E050E060E070E064
:104DC00004C0440F551F661F771F8A95D2F7809144
:104DD000210490912204A0912304B09124048A011B
:104DE0009B01082B192B2A2B3B2BC901B8011F91C2
:104DF0000F910C9494260F931F9341E050E060E0D4
:104E000070E004C0440F551F661F771F8A95D2F7C4
:104E1000CB01BA0160957095809590950091210421
:104E200010912204209123043091240460237123E3
:104E3000822393231F910F910C9494260F931F9319
:104E400041E050E060E070E004C0440F551F661F71
:104E5000771F8A95D2F78091210490912204A09126
:104E60002304B09124048A019B01082719272A27CB
:104E70003B27C901B8011F910F910C9494260F9301
:104E80001F9300912104109122042091230430915A
:104E90002404602B712B822B932B1F910F910C9468
:104EA00094260F931F9300912104109122042091C6
:104EB00023043091240460237123822393231F91C0
:104EC0000F910C9494260F931F930091210410913D
:104ED0002204209123043091240460277127822723
:104EE00093271F910F910C9494260895E92FEE0FAC
:104EF000E90FEE0F8E0F982F977041E001C0440F1D
:104F00009A95EAF786958695869595E0899FF001B2
:104F10001124ED5FFB4F30E020E070E05191DF01A4
:104F20001197CB01022E02C0969587950A94E2F75D
:104F3000817081958527842385278C932F5F3F4F30
:104F40002530310559F70895E92FEE0FE90FEE0FDF
:104F50008E0F982F977086958695869525E0829F6F
:104F6000F0011124ED5FFB4F50E040E080E0219123
:104F700030E0092E02C0369527950A94E2F7217099
:104F80003327042E01C0220F0A94EAF7822B4F5FC9
:104F90005F4F4530510559F70895BF92CF92DF9288
:104FA000EF92FF920F931F93CF93DF938C01C090EA
:104FB0002104D0902204E0902304F09024048091F6
:104FC000250490912604A0912704B0912804C82AB2
:104FD000D92AEA2AFB2ACFE1D0E0BC2ED701C601AC
:104FE0000C2E04C0B695A795979587950A94D2F78D
:104FF00080FD0EC0219788F7B12C8B2DDF91CF91CA
:105000001F910F91FF90EF90DF90CF90BF90089588
:10501000B8018C2F0E94480B019761F3EECFCF931C
:10502000DF93EC010E94CD27BE01DF91CF910C945C
:10503000480B1F93CF93DF93EB019091C803992303
:1050400031F0CB01DF91CF911F910C940F28882371
:1050500079F0CB010E94CD27182F682FCE010E9436
:105060007627BE01812FDF91CF911F910C94480BC1
:10507000CB010E94A427182FF4CF682F8091FF0145
:10508000909100020C94432A682F8091FF01909127
:1050900000020C944E2A8091FF01909100020C9422
:1050A000592A809129048595859585950895809143
:1050B00029048770089590912904977081E009F47C
:1050C00080E0089580914D04089590914D04892BBE
:1050D00080934D040895809590914D04982390936A
:1050E0004D04089510924D04089590914C04892B1D
:1050F00080934C040895809590914C04982390934C
:105100004C04089510924C04089510924B04089595
:1051100080912A04089508950C948B2890912A0474
:10512000981721F080932A040C948C28089580917C
:105130002A04882329F010922A0480E00C948C28F9
:105140000895E091FF01F091000280914D04808369
:10515000E091FF01F0910002808190914C04892B35
:105160008083E091FF01F0910002808190914B04D7
:10517000892B808390912A04992381F0E091FF018B
:10518000F09100028081892B80838091FF019091B2
:1051900000020E94AF2981110E9497288091FF018F
:1051A000909100020C941C1F08950C94D42898E050
:1051B000899F90011124622B609329040E94DA26B2
:1051C000809129048595859585950C94D528109214
:1051D000290480E00C94D528909129048095892396
:1051E00080932904282F277071F4282F082E000C93
:1051F000330B9217130639F08595859585950E9496
:10520000FB260C94E728089590E080E00E94FD3290
:1052100021E08C3E9E4F09F020E0822F089582E02D
:1052200090E00C94F53283E090E00C94F532CF934B
:1052300084E090E00E94F532C82F81E290E00E9465
:10524000F532982F8C2FCF910895CF93C92F682FC7
:1052500084E090E00E9413336C2F81E290E0CF91C4
:105260000C941333AB01BC018FE090E00C94253318
:10527000AB01BC0183E190E00C94253360E070E069
:10528000CB010C94382960E070E0CB010E943229F8
:105290000C943E296CEE7EEF90E080E00E9431336A
:1052A00060E082E090E00E94133360E083E090E0F1
:1052B0000E941333109225041092260410922704A2
:1052C0001092280460E084E090E00E94133360E0D4
:1052D00081E290E00E94133360E085E090E00E945C
:1052E000133360E086E090E00E9413336FEF87E0B5
:1052F00090E00E94133340E050E0BA0188E090E073
:105300000E94253360E08DE090E00E94133340E07E
:1053100050E0BA0188E190E00E94253360E087E127
:1053200090E00E94133340E050E0BA018CE190E03D
:105330000E94253360E080E290E00E94133340E059
:1053400050E0BA0188E190E00E9425330C94432993
:105350000C944A29682F8EE090E00C941333FC01E2
:10536000329680910B02882321F0809150079EE1B4
:1053700087FF96E080E0915008F408952191222360
:10538000D1F38F5FF8CF662301F120910B02222326
:10539000F1F02091500727FF1AC0462F46954695F9
:1053A00046954E3190F4677021E030E002C0220F44
:1053B000331F6A95E2F7840F911DFC01828190E012
:1053C0002823392381E0232B69F480E00895FC0130
:1053D000329608962191261721F0E817F907D1F7A0
:1053E000F4CF81E008959C01FC0132969FEF80E0AC
:1053F0004191461751F09F3F19F4411101C0982F78
:105400008F5F8630A9F79F3F09F40895290F311D5A
:1054100097FD3A95F90162830895FC01329608964A
:105420002191261303C0DF0111971C92E817F90799
:10543000B9F70895E62FE695E695E695EE3168F41E
:10544000E80FF92FF11D677021E030E001C0220F55
:105450006A95EAF78281822B82830895E62FE6958A
:10546000E695E695EE3170F4E80FF92FF11D6770BF
:1054700021E030E001C0220F6A95EAF72095828191
:1054800028232283089520910B02222329F02091C2
:10549000500727FD0C941A2A0C94F32920910B0233
:1054A000222329F02091500727FD0C942E2A0C94DA
:1054B0000D2AFC01329680910B02882351F08091D5
:1054C000500787FF06C08EE1DF011D928A95E9F73C
:1054D000089586E0F9CF089508950C946C2A0E94EF
:1054E0006D2A80915607843049F110924F0488E16B
:1054F00090E020E40FB6F894A895809360000FBE6A
:105500002093600080E00E942C0B0E946D2A83B7DC
:10551000817F846083BF83B7816083BF78948895DF
:1055200083B78E7F83BF0FB6F894A89580916000F3
:10553000886180936000109260000FBE0895089506
:10554000CF930E946B2A0E941A070E949F2AC0E0F4
:105550008C2F0E948E07811105C0CF5FC830C1F724
:10556000CF91089581E0FCCF08950C94B42A0E9455
:10557000E9200E94101F0E942C0B0C94B52A1F9248
:105580001FB61F9211248F939F93AF93BF93809167
:105590004F04811113C080914C0790914D07A09149
:1055A0004E07B0914F074196A11DB11D80934C0746
:1055B00090934D07A0934E07B0934F07BF91AF91C3
:1055C0009F918F911F901FBE1F90189582E084BD00
:1055D00093E095BD9AEF97BD80936E0008952FB725
:1055E000F89480914C0790914D07A0914E07B0918F
:1055F0004F072FBF08952FB7F89460914C07709113
:105600004D0780914E0790914F072FBF08959C0141
:105610004FB7F89480914C0790914D07A0914E0799
:10562000B0914F074FBF821B930B0895CF92DF922B
:10563000EF92FF922FB7F894C0904C07D0904D078F
:10564000E0904E07F0904F072FBFA7019601261B51
:10565000370B480B590BCA01B901FF90EF90DF904F
:10566000CF90089578941F921FB61F9211248F93A4
:105670009F93AF93BF9380914C0790914D07A0915A
:105680004E07B0914F070196A11DB11D80934C07A5
:1056900090934D07A0934E07B0934F07BF91AF91E2
:1056A0009F918F911F901FBE1F90189587E797E7D6
:1056B000909301088093000888E19AE00FB6F8946F
:1056C000A895809360000FBE90936000FFCF0E946A
:1056D0000429811102C00E94A8290E940F298093E9
:1056E0004E040E94172990935107809350070E94FF
:1056F0001329682F70E090E080E00E9458266091A6
:1057000021047091220480912304909124040C942C
:10571000922680917004089508950895CF93DF93A1
:10572000EC0180910B028823B1F18091500787FF33
:1057300032C060E282E08093E9008FEF9091E80050
:10574000815095FD06C095ED9A95F1F70000811105
:10575000F5CF8091E80085FF1BC080910B0270E0BF
:1057600050E040E0811104C050E040E068E070E0AB
:10577000CE010E945E2D8091E8008E778093E80034
:1057800080E2FE01A0E5B4E001900D928A95E1F778
:10579000DF91CF91089568E081E0CDCF08958091A9
:1057A0005507811109C00E94EE2E0E944B2F809157
:1057B000E20084608093E2000895109255070895F6
:1057C000089508950C94B72A42E061EC81E00E94AC
:1057D0006A2E42E261EC82E00C946A2E80915807B6
:1057E000833009F45FC030F48130C1F1823009F4B4
:1057F0009BC008958A3009F487C08B3009F46DC0CE
:10580000893009F04EC080915707813209F049C0B4
:1058100080915B0790915C07029708F042C08091ED
:10582000E800877F8093E8008091E80082FF35C020
:105830009091F3008091F200029729F48091F10099
:105840008B7F813021F48091F100809370048091EE
:10585000E8008B778093E8000C949E2E8091570788
:10586000813AF9F48091E800877F8093E800809185
:105870005B0790915C07892B61F460E280E594E01E
:1058800070E00E94AD2D8091E8008B778093E80056
:10589000089560E090E080E0F3CF80915607811199
:1058A000C3CF089580915707813AD9F780915B075C
:1058B00090915C07892BA9F78091E800877F8093FE
:1058C000E8008091E80080FFFCCF80910B0280937C
:1058D000F1008091E8008E77BDCF8091570781322B
:1058E00001F780915B0790915C07892BD1F680913D
:1058F000E800877F8093E8000E949E2E80915907E0
:1059000080930B020C94E92080915707813249F66D
:105910008091E800877F8093E8000E949E2E80910E
:105920005A0780937104089580915707813A09F0CE
:10593000B8CF8091E800877F8093E8008091E800ED
:1059400080FFFCCF80917104C2CF84B7877F84BF72
:105950000FB6F894A89580916000886180936000EC
:10596000109260000FBE80E890E00FB6F89480932C
:105970006100909361000FBE0E94701F0E94EE2E86
:105980000E944B2F8091E20084608093E200789423
:105990000E94D4310E947C1F81E092E00E940B1F84
:1059A00080915607853039F00E94871F0E947A1F28
:1059B0000E947B1FF5CF0E946F2A80915407882395
:1059C00079F30E94A02A882359F30E94482DE8CF3A
:1059D0000C94EA2C292F33272330310519F168F470
:1059E0002130310509F44AC02230310509F44BC099
:1059F00090E080E030E020E028C02132310579F1EC
:105A000022323105A9F780E490E028EC3AE06115F4
:105A10007105D9F08BE390E02DE83AE06130710533
:105A2000A1F0E6CF99278130910599F0009741F0D8
:105A30008230910589F00397D9F6EAEDF9E002C0CA
:105A4000ECE3FAE0849190E09F01FA013183208336
:105A50000895EAE2FAE0F6CFE0EEF9E0F3CF89E06C
:105A600090E022E53AE06115710579F389E090E074
:105A70002BE63AE06130710541F3BACF82E190E064
:105A80002BE73AE0E2CF8BE390E020E43AE0DDCF91
:105A900080E189BD82E189BD09B400FEFDCF80911E
:105AA000D8008F7D8093D8008091E0008260809341
:105AB000E0008091E00081FDFCCF0895AF92BF929D
:105AC000CF92DF92FF920F931F93CF93DF936C01DE
:105AD000EB018A010E94BD2EF82E811123C0011511
